:020000040800F2
:10000000180400200D060008E9050008EB050008AB
:10001000ED050008EF050008F105000800000000EC
:10002000000000000000000000000000F3050008D0
:10003000F505000800000000F7050008F9050008B4
:100040002D060008310600083506000839060008AC
:100050003D0600084106000845060008490600085C
:100060004D0600085106000855060008590600080C
:100070005D060008610600086506000869060008BC
:100080006D060008710600087506000800000000F3
:1000900000000000000000000000000079060008D9
:1000A0007D0600088106000885060008890600080C
:1000B0008D060008910600089506000899060008BC
:1000C0009D060008A1060008A5060008A90600086C
:1000D000AD060008B1060008B506000800000000E3
:1000E000B9060008BD060008C106000800000000AF
:1000F000000000000000000000000000C50600082D
:1001000000000000C9060008CD060008D10600085E
:1001100000000000000000000000000000000000DF
:10012000D5060008D9060008DD060008E10600082B
:10013000E5060008000000000000000000000000CC
:10014000000000000000000000000000E9060008B8
:10015000ED060008F1060008F5060008F90600089B
:10016000FD06000801070008000000000000000074
:10017000000000000000000000000000000000007F
:10018000000000000507000800000000000000005B
:10019000090700080D0700082DE9F0470268DFF89D
:1001A00010C3C449C44DC54EC54F624503D13B6819
:1001B00043F001030AE0B24203D13C6844F0020478
:1001C0000BE0AA4204D13B6843F004033B6005E026
:1001D0008A4203D13C6844F008043C6090F80580F2
:1001E00001230324B8F1040F0FDA057916686900BA
:1001F00004FA05F526EA0505156008FA01F1156807
:1002000041EA050EC2F800E071E0DFF8B8E214D16F
:10021000DEF80C8090F9049003FA09F949EA08081D
:10022000CEF80C80DEF8088090F9049003FA09F902
:1002300028EA0908CEF808802CE0B8F1050F12D1A1
:10024000DEF8088090F9049003FA09F949EA0808F1
:10025000CEF80880DEF80C8090F9049003FA09F9D2
:1002600028EA090814E0B8F1060F13D1DEF8088077
:1002700090F9049003FA09F949EA0808CEF80880D1
:10028000DEF80C8090F9049003FA09F949EA0808AD
:10029000CEF80C8090F8049009EBD97A4FEA9908CF
:1002A0000AF0FC0A6245A9EB0A090BD0B24208BF6A
:1002B000012108D0AA4208BF022104D08A4208BF07
:1002C000032100D000217D6945F480457D614FEA1E
:1002D000890501FA05F97C4941F82890DEF80050BB
:1002E00090F9041003FA01F10D43CEF8005006799D
:1002F00085799768710004FA06F627EA06068D40AC
:10030000966091680D4395600679C579D768B440C9
:10031000710027EA04048D40D460D1680D43D56094
:100320000479017A5569A34025EA03035361A1408A
:100330005369194351614179022915D101798C081A
:1003400001EB5475CB0825F0070502EB8302491B2E
:100350008900136A0F248C40A3431362136A407A06
:1003600000FA01F119431162BDE8F087012916D1A5
:10037000564A5749904204D1486840F4805048603A
:100380007047544A904203D1086840F4804005E029
:10039000514A904203D1086840F400400860704719
:1003A00010B5044601212068FFF7E0FF217960794C
:1003B0008900012808D0022808BF41F4004103D079
:1003C000032808BF41F48061A079E279237A41EAE9
:1003D000C00141EAC221607A226841EA4301014337
:1003E000116010BD10B503E031F8013BC360921EEF
:1003F00052B183689B07FCD504682305F4D411F837
:10040000014BC460521EF3E710BD02210522E0B586
:100410008DF805108DF80920012100228DF80810B3
:100420008DF8072002212248009005228DF8061041
:100430008DF8042000F00EF807218DF8041000F06C
:1004400009F8062000F004F8092000F001F807BDC3
:100450008DF8040068469FE6E0B501228DF805207E
:1004600001231A49009100228DF804308DF80620EE
:10047000086840F4407008608DF807208DF8083057
:100480008DF809206846FFF78BFF07BD38B5FFF7E9
:10049000BCFFFFF7E1FF0D4C104D206840F040001D
:1004A00020600D2229462046FFF79CFFF9E7000057
:1004B00000000240000C024000080240000402401C
:1004C00030380240003C0140083801400030014013
:1004D0004038024000380040003C0040000000204E
:1004E0000EE002684368024408305FEAC37C44BF00
:1004F0004B445B1E52F804CB43F804CB091FF9D1DF
:1005000050F8041B0029ECD17047000010B50749D2
:1005100079441831064C7C44163404E00A68081DFE
:10052000114488470146A142F8D110BD2C000000BB
:100530003C0000004EF68851CEF20001086840F4FD
:1005400070000860BFF34F8FBFF36F8F4FF00170E3
:10055000E1EE100A7047000089FFFFFF180000005D
:1005600070000000000000200000000000F00DF806
:10057000002801D0FFF7CAFFAFF300800020AFF3DF
:100580000080FFF783FF00F002F80120704700F0C1
:1005900001B800000746384600F002F8FBE700000B
:1005A00080B5AFF30080024A11001820ABBEFBE714
:1005B000260002000548014603B4684680F3098816
:1005C000AFF30080FFF7B6FFFFF7D0FFA5EDF5FE14
:1005D00068656C6C6F20776F726C640001000000BE
:1005E0000000000010000000FEE7FEE7FEE7FEE767
:1005F000FEE770477047704700F000B80248416856
:1006000002788A18426070470C0000200148804739
:10061000014800471D060008B505000802480168AA
:1006200041F470010160704788ED00E0FFF7FEBF04
:10063000FFF7FEBFFFF7FEBFFFF7FEBFFFF7FEBFEE
:10064000FFF7FEBFFFF7FEBFFFF7FEBFFFF7FEBFDE
:10065000FFF7FEBFFFF7FEBFFFF7FEBFFFF7FEBFCE
:10066000FFF7FEBFFFF7FEBFFFF7FEBFFFF7FEBFBE
:10067000FFF7FEBFFFF7FEBFFFF7FEBFFFF7FEBFAE
:10068000FFF7FEBFFFF7FEBFFFF7FEBFFFF7FEBF9E
:10069000FFF7FEBFFFF7FEBFFFF7FEBFFFF7FEBF8E
:1006A000FFF7FEBFFFF7FEBFFFF7FEBFFFF7FEBF7E
:1006B000FFF7FEBFFFF7FEBFFFF7FEBFFFF7FEBF6E
:1006C000FFF7FEBFFFF7FEBFFFF7FEBFFFF7FEBF5E
:1006D000FFF7FEBFFFF7FEBFFFF7FEBFFFF7FEBF4E
:1006E000FFF7FEBFFFF7FEBFFFF7FEBFFFF7FEBF3E
:1006F000FFF7FEBFFFF7FEBFFFF7FEBFFFF7FEBF2E
:10070000FFF7FEBFFFF7FEBFFFF7FEBFFFF7FEBF1D
:04000005080005B535
:00000001FF
