:020000040800F2
:10000000100400209505000871050008730500081C
:100010007505000877050008790500080000000054
:100020000000000000000000000000007B05000848
:100030007D050008000000007F050008810500081C
:10004000C1050008C5050008C9050008CD05000860
:10005000D1050008D505000837040008D9050008B7
:10006000DD050008E1050008E5050008E9050008D0
:10007000ED050008F1050008F5050008F905000880
:10008000FD05000801060008050600080000000044
:100090000000000000000000000000000906000849
:1000A0000D060008110600081506000819060008CC
:1000B0001D0600082106000825060008290600087C
:1000C0002D0600083106000835060008390600082C
:1000D0003D06000841060008450600080000000033
:1000E000490600084D0600085106000800000000FF
:1000F000000000000000000000000000550600089D
:1001000000000000590600085D06000861060008AE
:1001100000000000000000000000000000000000DF
:1001200065060008690600086D06000871060008EB
:10013000750600080000000000000000000000003C
:100140000000000000000000000000007906000828
:100150007D0600088106000885060008890600085B
:100160008D06000891060008000000000000000055
:10017000000000000000000000000000000000007F
:1001800000000000950600080000000000000000CC
:10019000990600089D060008F0B54479254601221D
:1001A0000323042D0DDA047961008D4001680E6887
:1001B00003FA04F426EA04040C600C6825430D607D
:1001C0004AE0A2490DD1CC68455702FA05F52C4307
:1001D000CC608C6890F9045002FA05F5AC438C6051
:1001E0000BE0052C03D100F078F8AC4304E0062CBA
:1001F00003D100F072F82C43CC6000250679944FAF
:10020000751905F0FC05B408751B0668BE420ED0D2
:10021000904FBE4208BF01260AD08F4FBE4208BF92
:10022000022605D08D4FBE4208BF032600D000260F
:100230008B4FD7F800C0AD0006FA05F54CF4804CA2
:10024000884EC7F800C046F824500C6890F9045056
:1002500002FA05F52C430C60057981796C0001FAEE
:1002600004F401688E6803FA05F526EA05058D6039
:100270008D682C438C600579C679CF68AB4027EA3E
:100280000303CB606C00CB6806FA04F41C43CC601B
:10029000037A04794D69A24025EA02024A61A3402B
:1002A0004A6913434B614379022B15D102799408B3
:1002B00002EB5475D30825F0070501EB8301521BAF
:1002C00092000B6A0F24944023400B620B6A407A21
:1002D00000FA02F21A430A62F0BD8C6890F90450E9
:1002E00002FA05F52C438C60CC6890F9045002FAB0
:1002F00005F5704770B5450800EB95768208B6089D
:1003000012015A4B9C58A0EB8600C000001D01FA58
:1003100000F02043985070BD55490A68C240D30789
:1003200000D4704710B50A68012404FA00F01043A5
:10033000086010BD002100E0491C8142FCD37047D9
:1003400018B54C48454C8FB0016841F00801016078
:100350000C21026842F0010202608DF8281001228F
:100360008DF82920022100228DF82A108DF82C20EA
:100370008DF82B20099409A8FFF70EFF01218DF8B5
:100380001D100D208DF81C00022200218DF81E206A
:100390008DF820108DF81F10069406A8FFF7FCFEBC
:1003A0000E2101228DF810108DF81120022100225B
:1003B0008DF812108DF814208DF81320039403A8E3
:1003C000FFF7EAFE0F2101228DF804108DF80520B9
:1003D000022100228DF806108DF808208DF80720E4
:1003E00000946846FFF7D8FE19490C9100228DF859
:1003F0003420052102228DF835108DF837200CA805
:10040000FFF7CAFE1848016841F04001016006206C
:100410000021FFF76FFF606980F400506061606940
:1004200080F480406061606940F40040606112487F
:10043000FFF780FFEFE780B50020FFF76DFF0F4863
:10044000016881F48051016001BD0000003C014061
:10045000000002400004024000080240000C02407C
:10046000443802400838014000E100E000E400E0C8
:10047000143C01403038024020A10700140C024017
:100480000EE002684368024408305FEAC37C44BF60
:100490004B445B1E52F804CB43F804CB091FF9D13F
:1004A00050F8041B0029ECD17047000010B5074933
:1004B00079441831064C7C44163404E00A68081D5F
:1004C000114488470146A142F8D110BD2C0000001C
:1004D0003C0000004EF68851CEF20001086840F45E
:1004E00070000860BFF34F8FBFF36F8F4FF0017044
:1004F000E1EE100A7047000089FFFFFF0C000000CA
:10050000B4000000000000200000000000F00DF822
:10051000002801D0FFF7CAFFAFF300800020AFF33F
:100520000080FFF70DFF00F002F80120704700F097
:1005300001B800000746384600F002F8FBE700006B
:1005400080B5AFF30080024A11001820ABBEFBE774
:10055000260002000548014603B4684680F3098876
:10056000AFF30080FFF7B6FFFFF7D0FFA5EDF5FE74
:10057000FEE7FEE7FEE7FEE7FEE7704770477047DD
:1005800000F000B80248416802788A18426070475B
:10059000000000200148804701480047A5050008E9
:1005A000550500080248016841F470010160704778
:1005B00088ED00E0010000000000000010000000D5
:1005C000FFF7FEBFFFF7FEBFFFF7FEBFFFF7FEBF5F
:1005D000FFF7FEBFFFF7FEBFFFF7FEBFFFF7FEBF4F
:1005E000FFF7FEBFFFF7FEBFFFF7FEBFFFF7FEBF3F
:1005F000FFF7FEBFFFF7FEBFFFF7FEBFFFF7FEBF2F
:10060000FFF7FEBFFFF7FEBFFFF7FEBFFFF7FEBF1E
:10061000FFF7FEBFFFF7FEBFFFF7FEBFFFF7FEBF0E
:10062000FFF7FEBFFFF7FEBFFFF7FEBFFFF7FEBFFE
:10063000FFF7FEBFFFF7FEBFFFF7FEBFFFF7FEBFEE
:10064000FFF7FEBFFFF7FEBFFFF7FEBFFFF7FEBFDE
:10065000FFF7FEBFFFF7FEBFFFF7FEBFFFF7FEBFCE
:10066000FFF7FEBFFFF7FEBFFFF7FEBFFFF7FEBFBE
:10067000FFF7FEBFFFF7FEBFFFF7FEBFFFF7FEBFAE
:10068000FFF7FEBFFFF7FEBFFFF7FEBFFFF7FEBF9E
:10069000FFF7FEBFFFF7FEBFFFF7FEBFFFF7FEBF8E
:040000050800055595
:00000001FF
